:100000000C942A000C9434000C9434000C943400AA
:100010000C9434000C9434000C9434000C94340090
:100020000C9434000C9434000C9434000C94340080
:100030000C9434000C9434000C9434000C94340070
:100040000C9434000C9434000C9434000C94340060
:100050000C94340011241FBECFE5D8E0DEBFCDBF25
:100060000E9447010C9463010C9400004130A1F5FB
:10007000813089F028F08230C9F0833011F1089581
:100080002BB381E090E002C0880F991F6A95E2F7D8
:10009000822B8BBB089528B381E090E002C0880FCB
:1000A000991F6A95E2F7822B88BB089525B381E0FA
:1000B00090E002C0880F991F6A95E2F7822B85BBFA
:1000C000089522B381E090E002C0880F991F6A95DD
:1000D000E2F7822B82BB0895411137C0813091F045
:1000E00028F08230D9F0833029F108952BB381E0D4
:1000F00090E002C0880F991F6A95E2F780958223ED
:100100008BBB089528B381E090E002C0880F991F4F
:100110006A95E2F78095822388BB089525B381E034
:1001200090E002C0880F991F6A95E2F780958223BC
:1001300085BB089522B381E090E002C0880F991F2B
:100140006A95E2F78095822382BB08954130B1F52C
:10015000813089F028F08230C9F0833011F10895A0
:100160002AB381E090E002C0880F991F6A95E2F7F8
:10017000822B8ABB089527B381E090E002C0880FEC
:10018000991F6A95E2F7822B87BB089524B381E01B
:1001900090E002C0880F991F6A95E2F7822B84BB1A
:1001A0000895E1E1F3E0208181E090E002C0880F52
:1001B000991F6A95E2F7822B80830895411139C017
:1001C000813091F028F08230D9F0833029F1089500
:1001D0002AB381E090E002C0880F991F6A95E2F788
:1001E000809582238ABB089527B381E090E002C006
:1001F000880F991F6A95E2F78095822387BB08953F
:1002000024B381E090E002C0880F991F6A95E2F75D
:100210008095822384BB0895E1E1F3E0208181E0B1
:1002200090E002C0880F991F6A95E2F780958223BB
:1002300080830895813079F028F08230A9F08330EE
:10024000E1F024C089B390E002C0959587956A9546
:10025000E2F78170089586B390E002C09595879586
:100260006A95E2F78170089583B390E002C0959596
:1002700087956A95E2F78170089580B390E002C097
:10028000959587956A95E2F781700895089541E004
:1002900061E080E00E94A60040E061E081E00E9411
:1002A000A60061E081E00E941A01813031F441E052
:1002B00061E080E00E943600F4CF40E061E080E041
:0A02C0000E943600EECFF894FFCF45
:00000001FF
